S012000048656C6C6F576F726C642E7372656316
S11300000C942A000C943C000C943C000C943C008E
S11300100C943C000C943C000C943C000C943C006C
S11300200C943C000C943C000C943C000C943C005C
S11300300C943C000C943C000C943C000C943C004C
S11300400C943C000C943C000C943C000C943C003C
S11300500C943C0011241FBECFE5D8E0DEBFCDBF19
S113006020E0A0E6B0E001C01D92A03AB207E1F79B
S11300700E9409030C9480050C9400003E9A86B1FA
S1130080876886B90895CF93DF9387B12770282BAB
S113009027B9369A349BFECF349A84B195B1282F70
S11300A0392F40E050E060E070E080E090E0DF91C4
S11300B0CF910895CF92DF92EF92FF928AE08093DE
S11300C09F00D09A2FEF84E39CE021508040904021
S11300D0E1F700C000000E943E0020E030E040E074
S11300E050E060E070E080E090E00E9443000E94F5
S11300F08E0420E030E040EA50E40E941D0520E038
S113010030E040EE50E40E94BD036B017C010E948C
S1130110250420E3260F209360002EE22093610043
S113012080E090E00E9451049B01AC01C701B6013C
S11301300E94580320E030E040E251E40E941D0593
S11301400E942504605D6093620010926300FF903A
S1130150EF90DF90CF900895672B09F09FC0009730
S113016011F4D89808958130910511F4D99808951F
S11301708230910511F4DA9808958330910511F4D1
S1130180DB9808958430910511F4DC980895853046
S1130190910511F4DD9808958630910511F4DE98E7
S11301A008958730910511F4DF9808958A309105F8
S11301B011F4C09808958B30910511F4C1980895F5
S11301C08C30910511F4C29808958D30910511F485
S11301D0C39808958E30910511F4C49808958F3012
S11301E0910511F4C59808958031910511F4C698CC
S11301F008958131910511F4C798089584319105CA
S113020011F4A89808958531910511F4A9980895D9
S11302108631910511F4AA9808958731910511F456
S1130220AB9808958831910511F4AC9808958931FB
S1130230910511F4AD9808958A31910511F4AE98A1
S113024008958B31910511F4AF9808958E3191057D
S113025011F4909808958F31910511F491980895AF
S11302608032910511F4929808958132910511F428
S1130270939808958232910511F4949808958332E5
S1130280910511F4959808958432910511F4969886
S11302900895859709F09FC097980895009711F4E1
S11302A0D89A08958130910511F4D99A089582302D
S11302B0910511F4DA9A08958330910511F4DB9ACB
S11302C008958430910511F4DC9A089585309105E0
S11302D011F4DD9A08958630910511F4DE9A08959B
S11302E08730910511F4DF9A08958A30910511F44D
S11302F0C09A08958B30910511F4C19A08958C30F9
S1130300910511F4C29A08958D30910511F4C39AA0
S113031008958E30910511F4C49A08958F30910593
S113032011F4C59A08958031910511F4C69A08957F
S11303308131910511F4C79A08958431910511F41E
S1130340A89A08958531910511F4A99A08958631E2
S1130350910511F4AA9A08958731910511F4AB9A85
S113036008958831910511F4AC9A08958931910565
S113037011F4AD9A08958A31910511F4AE9A089555
S11303808B31910511F4AF9A08958E31910511F4D2
S1130390909A08958F31910511F4919A08958032BD
S11303A0910511F4929A08958132910511F4939A6A
S11303B008958232910511F4949A08958332910537
S11303C011F4959A08958432910511F4969A08953A
S11303D0859709F4979A0895CF93C82F80FF07C093
S11303E061E070E082E290E00E94AC0006C060E050
S11303F070E082E290E00E94AC00C1FF07C061E0BF
S113040070E083E290E00E94AC0006C060E070E01F
S113041083E290E00E94AC00C2FF07C061E070E09C
S113042084E290E00E94AC0006C060E070E084E2E8
S113043090E00E94AC00C3FF07C061E070E085E279
S113044090E00E94AC0006C060E070E085E290E0BD
S11304500E94AC00CF910895CF93C82F60E070E064
S11304608AE190E00E94AC008C2F0E94EC0161E0D4
S113047070E08BE190E00E94AC0087EE93E001977E
S1130480F1F700C0000060E070E08BE190E00E94B2
S1130490AC0087EE93E00197F1F700C00000CF9124
S11304A0089580E00E942C0281E00E942C020895AD
S11304B0CF93C62F813059F480E8860F82958F70D0
S11304C00E942C028C2F8F700E942C020CC0823050
S11304D051F480EC860F82958F700E942C028C2F31
S11304E08F700E942C02CF91089580E00E94EC014D
S11304F08FE19EE40197F1F700C0000083E00E94C1
S11305002C0287E893E10197F1F700C0000083E033
S11305100E942C0287EF9AE20197F1F700C00000D5
S113052083E00E942C0282E00E942C0282E00E945E
S11305302C0288E00E942C0280E00E942C028CE0B5
S11305400E942C0280E00E942C0286E00E942C0271
S11305500895CF93C82F61E070E08AE190E00E9493
S1130560AC008C2F82958F700E94EC0161E070E0EA
S11305708BE190E00E94AC0087EE93E00197F1F7E5
S113058000C0000060E070E08BE190E00E94AC00ED
S113059087EE93E00197F1F700C000008C2F8F7075
S11305A00E94EC0161E070E08BE190E00E94AC00FD
S11305B087EE93E00197F1F700C0000060E070E07F
S11305C08BE190E00E94AC0087EE93E00197F1F795
S11305D000C00000CF910895CF93DF93EC01888190
S11305E0882331F021960E94A90289918111FBCFC1
S11305F0DF91CF91089581E00E942C028CE00E944B
S11306002C02089581E00E942C0288E00E942C02B2
S113061008958FEF81BB84BB0E9475021FEF0F2EDC
S1130620FFE0FF2EF02D00E00E945A0011BB14BB26
S11306300E94750261E081E00E94580280E690E029
S11306400E94EC02CF2DD02F9FE72AE186E0915043
S113065020408040E1F700C000000E94020321977F
S1130660209791F7CF2DD02F8FE79AE126E0815084
S113067090402040E1F700C000000E94FB02219757
S1130680209791F70E94510261E082E00E94580293
S113069085E60E94A90283E50E94A9028FEF99E6EC
S11306A028E1815090402040E1F700C00000BCCF19
S11306B05058BB27AA270ED086C177D130F07CD101
S11306C020F031F49F3F11F41EF46CC10EF4E09558
S11306D0E7FB62C1E92F88D180F3BA176207730779
S11306E08407950718F071F49EF5A0C10EF4E09507
S11306F00B2EBA2FA02D0B01B90190010C01CA01D8
S1130700A0011124FF27591B99F0593F50F4503E82
S113071068F11A16F040A22F232F342F4427585F74
S1130720F3CF469537952795A795F0405395C9F78C
S11307307EF41F16BA0B620B730B840BBAF0915044
S1130740A1F0FF0FBB1F661F771F881FC2F70EC0E3
S1130750BA0F621F731F841F48F4879577956795B6
S1130760B795F7959E3F08F0B3CF9395880F08F09F
S11307709927EE0F9795879508950CD024C11CD125
S113078040F013D130F021F45F3F19F005C151114D
S11307904EC108C129D198F39923C9F35523B1F364
S11307A0951B550BBB27AA2762177307840738F0DC
S11307B09F5F5F4F220F331F441FAA1FA9F333D03B
S11307C00E2E3AF0E0E830D091505040E695001CEF
S11307D0CAF729D0FE2F27D0660F771F881FBB1FAB
S11307E0261737074807AB07B0E809F0BB0B802D85
S11307F0BF01FF2793585F4F2AF09E3F510568F0D1
S1130800CBC015C15F3FECF3983EDCF3869577953A
S11308106795B795F7959F5FC9F7880F911D9695D2
S1130820879597F90895E1E0660F771F881FBB1F2E
S1130830621773078407BA0720F0621B730B840BDB
S1130840BA0BEE1F88F7E0950895D6D088F09F572D
S113085090F0B92F9927B751A0F0D1F0660F771F08
S1130860881F991F1AF0BA95C9F712C0B13081F0E8
S1130870DDD0B1E00895DAC0672F782F8827B85FFC
S113088039F0B93FCCF3869577956795B395D9F749
S11308903EF490958095709561957F4F8F4F9F4F53
S11308A00895E89409C097FB3EF49095809570955F
S11308B061957F4F8F4F9F4F9923A9F0F92F96E9A8
S11308C0BB279395F695879577956795B795F1111D
S11308D0F8CFFAF4BB0F11F460FF1BC06F5F7F4FBA
S11308E08F4F9F4F16C0882311F096E911C07723CC
S11308F021F09EE8872F762F05C0662371F096E8D5
S1130900862F70E060E02AF09A95660F771F881FA3
S1130910DAF7880F9695879597F90895E894F92F53
S113092096EBFF2381F0121613061406440B9395DD
S1130930F69587957795679557954040FF23B9F7C6
S11309401BC099270895882351F49850D2F7872B18
S1130950762F652F542F432F322F20E0B1F3121638
S113096013061406440B88233AF09A95440F551F36
S1130970661F771F881FCAF755234AF4440F551F73
S113098011F460FF04C06F5F7F4F8F4F9F4F880F3C
S11309909695879597F9089597F99F6780E870E091
S11309A060E008959FEF80EC089500240A941616E1
S11309B0170618060906089500240A941216130649
S11309C0140605060895092E0394000C11F48823D7
S11309D052F0BB0F40F4BF2B11F460FF04C06F5FF3
S11309E07F4F8F4F9F4F089557FD9058440F551FC9
S11309F059F05F3F71F04795880F97FB991F61F09D
S1130A009F3F79F087950895121613061406551F13
S1130A10F2CF4695F1DF08C0161617061806991F7F
S1130A20F1CF86957105610508940895E894BB2774
S1130A3066277727CB0197F908950BD0C4CFB5DF8C
S1130A4028F0BADF18F0952309F0A6CFABCF112414
S1130A50EECFCADFA0F3959FD1F3950F50E0551F59
S1130A60629FF001729FBB27F00DB11D639FAA27FF
S1130A70F00DB11DAA1F649F6627B00DA11D661F4E
S1130A80829F2227B00DA11D621F739FB00DA11D6F
S1130A90621F839FA00D611D221F749F3327A00D29
S1130AA0611D231F849F600D211D822F762F6A2FC5
S1130AB011249F5750408AF0E1F088234AF0EE0F4A
S1130AC0FF1FBB1F661F771F881F91505040A9F757
S1130AD09E3F510570F060CFAACF5F3FECF3983E84
S1130AE0DCF3869577956795B795F795E7959F5FBE
S1130AF0C1F7FE2B880F911D9695879597F9089558
S1070B00F894FFCF93
S9030000FC
